:020000040800F2
:1000000000200020D51A0008211B0008211B000831
:1000100000000000000000000000000000000000E0
:10002000000000000000000000000000211B00088C
:100030000000000000000000211B0008310F000834
:10004000211B0008211B0008211B0008211B0008A0
:10005000211B0008211B0008211B0008211B000890
:10006000211B0008211B0008211B0008211B000880
:10007000211B0008211B0008211B0008211B000870
:10008000211B0008211B000800000000211B0008A4
:10009000211B0008211B0008211B0008211B000850
:1000A000211B0008211B0008211B0008211B000840
:1000B000211B000800000000211B000800000000B8
:1000C0005FF808F1054B10B5054A5C6822405A609C
:1000D0005A6811430843586010BDC04600100240E2
:1000E000FFFFC2FF064A002804D11168054B0B40F0
:1000F000136070478021136849040B431360F8E7CD
:1001000000100240FFFFFFFE0321034A53688B43A8
:10011000184350607047C04600100240044A5369BB
:10012000002902D183435361704718435061FBE7B4
:1001300000100240044A9369002902D1834393616D
:10014000704718439061FBE700100240430908D153
:100150000A4B1B681F221040C340181C0123184083
:100160007047012B04D0022B05D0044B5B6BF1E7E9
:10017000024B1B6AEEE7014B5B6AEBE700100240A3
:10018000084982B00B6801930B68019A9B1A984248
:1001900005D9C0460B68019A9B1A8342F9D302B075
:1001A0007047C0466C010020F8B5071C90200D1C5C
:1001B000C0050421161C1C1C01F0F8FD9020102124
:1001C000C00501F0F3FDA6482A2101F0E9FCA4488E
:1001D000802101F0E9FC0128F9D0A148022101F0B9
:1001E000E3FC0028F9D090200421C00501F0DCFDDB
:1001F00090200421C00501F0D9FD90201021C005F8
:1002000001F0D2FD9648002101F0CAFC94488021FB
:1002100001F0CAFC0128F9D09148022101F0C4FC88
:100220000028F9D090200421C00501F0BDFD9020E8
:100230000421C00501F0BAFD90201021C00501F095
:10024000B3FD8748391C01F0ABFC8548802101F0E3
:10025000ABFC0128F9D08248022101F0A5FC00285E
:10026000F9D090200421C00501F09EFD90200421CA
:10027000C00501F09BFD90201021C00501F094FD08
:100280007748002101F08CFC7548802101F08CFC3E
:100290000128F9D07248022101F086FC0028F9D02B
:1002A00090200421C00501F07FFD90200421C005AD
:1002B00001F07CFD90201021C00501F075FD68481B
:1002C000311C01F06DFC6648802101F06DFC0128B5
:1002D000F9D06348022101F067FC0028F9D0902092
:1002E0000421C00501F060FD90200421C00501F04B
:1002F0005DFD90201021C00501F058FD58482B21CC
:1003000001F04EFC5648802101F04EFC0128F9D046
:100310005348022101F048FC0028F9D09020042124
:10032000C00501F041FD90200421C00501F03EFD13
:1003300090201021C00501F037FD4948002101F04F
:100340002FFC4748802101F02FFC0128F9D04448B8
:10035000022101F029FC0028F9D090200421C005D9
:1003600001F022FD90200421C00501F01FFD902026
:100370001021C00501F018FD3948291C01F010FCBE
:100380003748802101F010FC0128F9D034480221BF
:1003900001F00AFC0028F9D090200421C00501F0EA
:1003A00003FD90200421C00501F000FD90201021E4
:1003B000C00501F0F9FC2A48002101F0F1FB2848B2
:1003C000802101F0F1FB0128F9D02548022101F03C
:1003D000EBFB0028F9D090200421C00501F0E4FCDB
:1003E00090200421C00501F0E1FC90201021C005FF
:1003F00001F0DAFC1A48211C01F0D2FB18488021D8
:1004000001F0D2FB0128F9D01548022101F0CCFB04
:100410000028F9D090200421C00501F0C5FC9020EF
:100420000421C00501F0C2FC90201021C00501F09C
:10043000BDFC0B482C2101F0B3FB0948802101F0E1
:10044000B3FB0128F9D00648022101F0ADFB0028DA
:10045000F9D090200421C00501F0A6FCF8BDC046EB
:1004600000300140F8B5061C9020CA4DC00504219B
:100470002F886C8801F09AFC90201021C00501F0B3
:1004800095FC013F013CC4482A21FFB2E4B201F0CF
:1004900087FBC148802101F087FB0128F9D0BE48C5
:1004A000022101F081FB0028F9D090200421C00531
:1004B00001F07AFC90200421C00501F077FC902027
:1004C0001021C00501F070FCB348002101F068FB69
:1004D000B148802101F068FB0128F9D0AE48022123
:1004E00001F062FB0028F9D090200421C00501F042
:1004F0005BFC90200421C00501F058FC90201021E5
:10050000C00501F051FCA448002101F049FBA248BC
:10051000802101F049FB0128F9D09F48022101F018
:1005200043FB0028F9D090200421C00501F03CFCD9
:1005300090200421C00501F039FC90201021C00555
:1005400001F032FC9448002101F02AFB92488021FE
:1005500001F02AFB0128F9D08F48022101F024FB89
:100560000028F9D090200421C00501F01DFC902046
:100570000421C00501F01AFC90201021C00501F0F3
:1005800013FC8548391C01F00BFB8348802101F0E6
:100590000BFB0128F9D08048022101F005FB00285F
:1005A000F9D090200421C00501F0FEFB9020042129
:1005B000C00501F0FBFB90201021C00501F0F6FB07
:1005C00075482B2101F0ECFA7348802101F0ECFA18
:1005D0000128F9D07048022101F0E6FA0028F9D08C
:1005E00090200421C00501F0DFFB90200421C0050C
:1005F00001F0DCFB90201021C00501F0D5FB66481E
:10060000002101F0CDFA6448802101F0CDFA0128E3
:10061000F9D06148022101F0C7FA0028F9D09020F2
:100620000421C00501F0C0FB90200421C00501F0A9
:10063000BDFB90201021C00501F0B6FB56480021FB
:1006400001F0AEFA5448802101F0AEFA0128F9D049
:100650005148022101F0A8FA0028F9D09020042185
:10066000C00501F0A1FB90200421C00501F09EFB14
:1006700090201021C00501F097FB4748002101F0B0
:100680008FFA4548802101F08FFA0128F9D04248BD
:10069000022101F089FA0028F9D090200421C00538
:1006A00001F082FB90200421C00501F07FFB902027
:1006B0001021C00501F078FB3748211C01F070FAC9
:1006C0003548802101F070FA0128F9D03248022122
:1006D00001F06AFA0028F9D090200421C00501F049
:1006E00063FB90200421C00501F060FB90201021E5
:1006F000C00501F05BFB28482C2101F051FA264887
:10070000802101F051FA0128F9D02348022101F09B
:100710004BFA0028F9D090200421C00501F044FBD9
:10072000F0211D48090101F033FA90201021C00585
:10073000012201F03DFB90200022C005042101F0C0
:1007400037FB2A886B8800245343002B15D01248AE
:10075000311C01F027FA1048802101F025FA012808
:10076000F9D00D48022101F01FFA0028F9D02A889B
:100770006B8801345343A342E9D890200122C0057D
:10078000042101F015FBE0210348C90001F000FA43
:10079000F8BDC0460000002000300140802070B548
:1007A000400186B00121FFF7C5FC802001218002B5
:1007B000FFF7B4FC1C23DF4C902023601B3B23710C
:1007C0000023211CA371E371C0050333637101F0A1
:1007D00081FAA02390202360211C9E3BC005237139
:1007E00001F078FA90200821C00501F0DDFAD24C22
:1007F000236801932368019A9B1A092B05D8C046E8
:100800002368019A9B1A092BF9D990200821C00569
:1008100001F0CCFA236802932368029A9B1A092BF1
:1008200005D8C0462368029A9B1A092BF9D9902053
:100830000821C00501F0B8FA90200721C005002268
:1008400001F0BCFA90200521C005002201F0B6FAA3
:100850000023E022B949D2008B810B81CB80CB8170
:100860000533FF334B80B648FC334B818A8001F05F
:1008700059F9B348012101F07FF9B24D2B79002BD2
:1008800000D150E300232B71236803932368039A5C
:100890009B1A632B05D8C0462368039A9B1A632BC7
:1008A000F9D990200421C00501F080FA012390209D
:1008B000A54E5B42C0050421338001F077FA9020F9
:1008C0001021C00501F072FA9D48012101F068F97C
:1008D0009B48802101F068F90128F9D0984802214D
:1008E00001F062F90028F9D090200421C00501F040
:1008F0005BFA236804932368049A9B1A092B05D892
:10090000C0462368049A9B1A092BF9D99020042128
:10091000C00501F04BFA90201021C00501F046FA05
:100920008748112101F03CF98548802101F03CF90C
:100930000128F9D08248022101F036F90028F9D0C7
:1009400090200421C00501F02FFA23680593236845
:10095000059A9B1A132B05D8C0462368059A9B1A43
:10096000132BF9D990200421C00501F01FFA902023
:100970001021C00501F01AFA7148262101F010F982
:100980006F48802101F010F90128F9D06C4802214C
:1009900001F00AF90028F9D090200421C00501F0E7
:1009A00003FA90200421C00501F000FA90201021E4
:1009B000C00501F0F9F96248012101F0F1F8604841
:1009C000802101F0F1F80128F9D05D48022101F001
:1009D000EBF80028F9D090200421C00501F0E4F9DB
:1009E00090200421C00501F0E1F990201021C005FC
:1009F00001F0DCF95248C02101F0D2F850488021C2
:100A000001F0D2F80128F9D04D48022101F0CCF8CC
:100A10000028F9D090200421C00501F0C5F99020EC
:100A20000421C00501F0C2F990201021C00501F099
:100A3000BBF94348102101F0B3F84148802101F08F
:100A4000B3F80128F9D03E48022101F0ADF80028A2
:100A5000F9D090200421C00501F0A6F990200421CE
:100A6000C00501F0A3F990201021C00501F09CF908
:100A70003348042101F094F83148802101F094F8C2
:100A80000128F9D02E48022101F08EF80028F9D073
:100A900090200421C00501F087F990200421C005B1
:100AA00001F084F990201021C00501F07FF924485D
:100AB000C12101F075F82248802101F075F8012864
:100AC000F9D01F48022101F06FF80028F9D09020DA
:100AD0000421C00501F068F990200421C00501F04F
:100AE00065F990201021C00501F05EF91448042139
:100AF00001F056F81248802101F056F80128F9D08B
:100B00000F48022101F050F80028F9D0902004216C
:100B1000C00501F049F990200421C00501F046F913
:100B200090201021C00501F041F90548C22101F0D3
:100B300037F80BE0840100206C01002070010020D8
:100B4000003001400000002082010020E0488021A8
:100B500001F02AF80128F9D0DD48022101F024F83B
:100B60000028F9D090200421C00501F01DF9902043
:100B70000421C00501F01AF990201021C00501F0F0
:100B800013F9D348032101F00BF8D148802101F07B
:100B90000BF80128F9D0CE48022101F005F8002811
:100BA000F9D090200421C00501F0FEF89020042126
:100BB000C00501F0FBF890201021C00501F0F4F809
:100BC000C348042100F0ECFFC148802100F0ECFF95
:100BD0000128F9D0BE48022100F0E6FF0028F9D034
:100BE00090200421C00501F0DFF890200421C00509
:100BF00001F0DCF890201021C00501F0D7F8B448CE
:100C0000C32100F0CDFFB248802100F0CDFF0128C4
:100C1000F9D0AF48022100F0C7FF0028F9D090209A
:100C20000421C00501F0C0F890200421C00501F0A6
:100C3000BDF890201021C00501F0B6F8A4480021AD
:100C400000F0AEFFA248802100F0AEFF0128F9D0ED
:100C50009F48022100F0A8FF0028F9D0902004212D
:100C6000C00501F0A1F890200421C00501F09EF814
:100C700090201021C00501F097F89548072100F059
:100C80008FFF9348802100F08FFF0128F9D0904812
:100C9000022100F089FF0028F9D090200421C0052E
:100CA00001F082F890200421C00501F07FF8902027
:100CB0001021C00501F07AF88548C52100F070FFC9
:100CC0008348802100F070FF0128F9D0804802217C
:100CD00000F06AFF0028F9D090200421C00501F03F
:100CE00063F890200421C00501F060F890201021E5
:100CF000C00501F059F87648242100F051FF7448EE
:100D0000802100F051FF0128F9D07148022100F044
:100D10004BFF0028F9D090200421C00501F044F8D1
:100D200090200421C00501F041F890201021C00559
:100D300001F03AF866487B2100F032FF64488021D8
:100D400000F032FF0128F9D06148022100F02CFFA9
:100D50000028F9D090200421C00501F025F890204A
:100D60000421C00501F022F890201021C00501F0F7
:100D70001DF85748362100F013FF5548802100F038
:100D800013FF0128F9D05248022100F00DFF00287E
:100D9000F9D090200421C00501F006F8902004212C
:100DA000C00501F003F890201021C00500F0FCFF01
:100DB0004748602100F0F4FE4548802100F0F4FE31
:100DC0000128F9D04248022100F0EEFE0028F9D0B7
:100DD00090200421C00500F0E7FFA02390202B8085
:100DE000C005203B04216B8000F0E0FF9020102123
:100DF000C00500F0DBFF3648132100F0D1FE344877
:100E0000802100F0D1FE0128F9D03148022100F004
:100E1000CBFE0028F9D090200421C00500F0C4FFCB
:100E200090200421C00500F0C1FF90201021C005D2
:100E300000F0BCFF26483A2100F0B2FE2448802191
:100E400000F0B2FE0128F9D02148022100F0ACFEEA
:100E50000028F9D090200421C00500F0A5FF9020C3
:100E60000421C00500F0A2FF90201021C00500F071
:100E70009BFF1748052100F093FE1548802100F0E4
:100E800093FE0128F9D01248022100F08DFE0028BF
:100E9000F9D090200421C00500F086FF90200421A5
:100EA000C00500F083FF90201021C00500F07EFFF8
:100EB0000748292100F074FE0548802100F074FEE7
:100EC0000128F9D00248022100F06EFE02E0C0467F
:100ED000003001400028F5D090200421C00500F02A
:100EE00063FF90200421C00500F060FF90201021D6
:100EF000C00500F05BFF0D48202100F051FE0B48BB
:100F0000802100F051FE0128F9D00848022100F0AC
:100F10004BFE0028F9D090200421C00500F044FFCA
:100F20003088FFF79FFA06B070BDC0460030014020
:100F3000024A1368013313607047C0466C010020F9
:100F400070B5061C00248025331C9020A340C005EA
:100F500002211D424FD000F027FF96235B00C046C0
:100F6000013B002BFBD190200121C00500F01CFFAC
:100F700096235B00C046013B002BFBD19020012152
:100F8000C00500F013FF96235B00C046013B002B19
:100F9000FBD10134082CD7D16433C046013B002B70
:100FA000FBD190200221C00500F0FEFE96235B00DD
:100FB000C046013B002BFBD190200121C00500F071
:100FC000F3FE6423C046013B002BFBD1902002219D
:100FD000C00500F0E3FE4442444190200121C005D9
:100FE00000F0E4FE9623E4B25B00C046013B002B18
:100FF000FBD1201C70BD00F0D9FEAEE738B5051C52
:1010000090200C1CC005022100F0CEFE96235B0050
:10101000C046013B002BFBD190200121C00500F010
:10102000C3FE96235B00C046013B002BFBD1902002
:101030000221C00500F0BAFE96235B00C046013BCA
:10104000002BFBD190200121C00500F0AFFE9623BC
:101050005B00C046013B002BFBD14220FFF770FF35
:101060006423002859D0C046013B002BFBD1281C2B
:10107000FFF766FF002800D172E06423C046013B01
:10108000002BFBD1201CFFF75BFF002822D0902013
:101090000221C00500F08AFE96235B00C046013B9A
:1010A000002BFBD190200121C00500F07DFE96238E
:1010B0005B00C046013B002BFBD190200221C00504
:1010C00000F072FE96235B00C046013B002BFBD173
:1010D000012038BD90200221C00500F067FE962354
:1010E0005B00C046013B002BFBD190200121C005D5
:1010F00000F05AFE96235B00C046013B002BFBD15B
:1011000090200221C00500F04FFE96235B00C046F0
:10111000013B002BFBD10020DBE790200221C00522
:1011200000F044FE96235B00C046013B002BFBD140
:1011300090200121C00500F037FE96235B00C046D9
:10114000013B002BFBD190200221C00500F02CFEBA
:1011500096235B00C046013B002BFBD10020B8E783
:1011600090200221C00500F021FE96235B00C046BE
:10117000013B002BFBD190200121C00500F014FEA3
:1011800096235B00C046013B002BFBD1902002213F
:10119000C00500F009FE96235B00C046013B002B12
:1011A000FBD1002095E7C04670B5051C90200C1CB3
:1011B000C005022100F0F8FD96235B00C046013B0C
:1011C000002BFBD190200121C00500F0EDFD9623FE
:1011D0005B00C046013B002BFBD190200221C005E3
:1011E00000F0E4FD96235B00C046013B002BFBD1E1
:1011F00090200121C00500F0D9FD96235B00C04678
:10120000013B002BFBD14220FFF79AFE642300280C
:1012100000D111E1C046013B002BFBD1281CFFF798
:101220008FFE002800D1E4E090200221C00500F0EC
:10123000BDFD96235B00C046013B002BFBD19020F7
:101240000121C00500F0B0FD96235B00C046013BC4
:10125000002BFBD190200221C00500F0A5FD9623B4
:101260005B00C046013B002BFBD16433C046013B11
:10127000002BFBD190200221C00500F095FD9623A4
:101280005B00C046013B002BFBD190200121C00533
:1012900000F08AFD96235B00C046013B002BFBD18A
:1012A00090200221C00500F081FD96235B00C0461E
:1012B000013B002BFBD190200121C00500F076FD01
:1012C00096235B00C046013B002BFBD14320FFF778
:1012D00037FE002800D1D2E06423C046013B002B3A
:1012E000FBD190200221C00500F05EFD96235B003B
:1012F000C046013B002BFBD10826002596235B004E
:10130000C046013B002BFBD190200121C00500F01D
:101310004BFD96235B00C046013B002BFBD1902088
:101320006D00C0050221EDB200F038FD002801D0AB
:101330000135EDB290200121C00500F037FD962364
:101340005B00C046013B002BFBD1013EF6B2002EF4
:10135000D4D190202570C005022100F025FD9623F0
:101360005B00C046013B002BFBD190200121C00552
:1013700000F01AFD96235B00C046013B002BFBD119
:1013800090200121C00500F011FD96235B00C046AE
:10139000013B002BFBD190200221C00500F006FD8F
:1013A00096235B00C046013B002BFBD1902002211D
:1013B000C00500F0FBFC96235B00C046013B002B00
:1013C000FBD190200121C00500F0EEFC96235B00CC
:1013D000C046013B002BFBD190200221C00500F04C
:1013E000E3FC96235B00C046013B002BFBD10120B0
:1013F00070BD90200221C00500F0D8FC96235B0050
:10140000C046013B002BFBD190200121C00500F01C
:10141000CBFC96235B00C046013B002BFBD1902008
:101420000221C00500F0C0FC96235B00C046013BD2
:10143000002BFBD10020DBE790200221C00500F04B
:10144000B5FC96235B00C046013B002BFBD19020EE
:101450000121C00500F0A8FC96235B00C046013BBB
:10146000002BFBD190200221C00500F09DFC9623AB
:101470005B00C046013B002BFBD10020B8E7902069
:101480000221C00500F092FC96235B00C046013BA0
:10149000002BFBD190200121C00500F085FC962394
:1014A0005B00C046013B002BFBD190200221C00510
:1014B00000F07AFC96235B00C046013B002BFBD179
:1014C000002095E79020F0B5C00583B0022100F020
:1014D0006BFC96235B00C046013B002BFBD19020A8
:1014E0000121C00500F060FC96235B00C046013B73
:1014F000002BFBD190200221C00500F057FC962361
:101500005B00C046013B002BFBD190200121C005B0
:1015100000F04CFC96235B00C046013B002BFBD146
:101520004220FFF70DFD6423002800D115E1C046DD
:10153000013B002BFBD11220FFF702FD002800D158
:1015400093E16423C046013B002BFBD18020FFF7D1
:10155000F7FC002800D1DCE090200221C00500F05B
:1015600025FC96235B00C046013B002BFBD190205D
:101570000121C00500F018FC96235B00C046013B2A
:10158000002BFBD190200221C00500F00DFC96231A
:101590005B00C046013B002BFBD10A20FEF7F0FDAB
:1015A0006B460B20D91DFFF7FFFD002800D1D1E0CD
:1015B0006B46DB790120732B00D0CCE0BC4C271CA0
:1015C0004F37FF3790200221C0052578667800F05C
:1015D000EBFB96235B00C046013B002BFBD1902028
:1015E0000121C00500F0E0FB96235B00C046013BF3
:1015F000002BFBD190200221C00500F0D7FB9623E1
:101600005B00C046013B002BFBD190200121C005AF
:1016100000F0CCFB96235B00C046013B002BFBD1C6
:101620004220FFF78DFC002800D1DAE06423C04699
:10163000013B002BFBD1281CFFF782FC002800D1C6
:10164000F1E06423C046013B002BFBD1301CFFF7C7
:1016500077FC002800D1A2E090200221C00500F014
:10166000A5FB96235B00C046013B002BFBD19020DD
:101670000121C00500F098FB96235B00C046013BAA
:10168000002BFBD190200221C00500F08DFB96239A
:101690005B00C046013B002BFBD10234BC4291D120
:1016A0006B461320D91DFFF77FFD002852D06B46F3
:1016B0003B20D91DFFF778FD00284BD06B463D201D
:1016C000D91DFFF771FD002844D06B466B20D91D52
:1016D000FFF76AFD00283DD06B46D97980236B2047
:1016E0001943FFF78BFC002834D06B461120D91D1D
:1016F000FFF75AFD00282DD06B46D9793F23994337
:101700003D3B19431120FFF779FC431E9841C0B2BD
:1017100021E090200221C00500F048FB96235B00E9
:10172000C046013B002BFBD190200121C00500F0F9
:101730003BFB96235B00C046013B002BFBD1902076
:101740000221C00500F030FB96235B00C046013B40
:10175000002BFBD1002003B0F0BD90200221C0057A
:1017600000F024FB96235B00C046013B002BFBD11D
:1017700090200121C00500F017FB96235B00C046B6
:10178000013B002BFBD190200221C00500F00CFB97
:1017900096235B00C046013B002BFBD1DAE790208B
:1017A0000221C00500F002FB96235B00C046013B0E
:1017B000002BFBD190200121C00500F0F5FA962303
:1017C0005B00C046013B002BFBD190200221C005ED
:1017D00000F0EAFA96235B00C046013B002BFBD1E8
:1017E000B8E790200221C00500F0E0FA96235B00E4
:1017F000C046013B002BFBD190200121C00500F029
:10180000D3FA96235B00C046013B002BFBD190200E
:101810000221C00500F0C8FA96235B00C046013BD8
:10182000002BFBD196E790200221C00500F0BEFA04
:1018300096235B00C046013B002BFBD19020012189
:10184000C00500F0B1FA96235B00C046013B002BB7
:10185000FBD190200221C00500F0A6FA96235B0080
:10186000C046013B002BFBD174E790200221C0054C
:1018700000F09CFA96235B00C046013B002BFBD195
:1018800090200121C00500F08FFA96235B00C0462E
:10189000013B002BFBD190200221C00500F084FA0F
:1018A00096235B00C046013B002BFBD152E7C046AC
:1018B00008000020F8B55F4656464D4644460020D5
:1018C000F0B4FEF721FC0020FEF70CFCE021002024
:1018D0008903FEF7F7FB0120FEF704FC1920FEF751
:1018E00035FC0028FAD00220FEF70EFCFA216D4BE1
:1018F0008900186800F074FA6B4A01385060C02003
:101900006A4900060B6A00251B021B0A03430B628F
:10191000072395601360FEF741FF802001218002BC
:10192000FEF7FCFB80200121C002FEF7F7FB8020C0
:1019300001210003FEF7F2FB9020012603275C4CF7
:10194000C005211C27602671A671E671657100F043
:10195000C1F9FF235748211C23602571A571E5714A
:10196000657100F0B7F95448211C26602571657136
:1019700000F0B0F9514B5048211C2360267167716B
:1019800000F0A8F9FFF79EFD0028FBD04C4B4A4E13
:101990009B465B4648484B491B6800F007FA46489F
:1019A000012100F0FBF90028F9D04348102100F094
:1019B000FBF94148022100F0F9F93F48012100F00C
:1019C000EDF90028F9D180213B48490100F0ECF9FC
:1019D0003948022100F0E8F93748202100F0E6F903
:1019E0003548042100F0E2F93348042100F0DCF925
:1019F0003148202100F0D8F9334B00201A88334BAE
:101A0000013A1B88D2B2013BDBB20021FEF7CCFBCE
:101A100090200421C005002200F0CAF99020102176
:101A2000C005012200F0C4F980239A467C3B994608
:101A30009846002704E0A02301375B009F4223D093
:101A4000434633854B46B361C0464246194B1C8A18
:101A500032854A46A4B2B261C0461D8AADB29F2FFC
:101A6000E9DC1B48802100F09FF80128F9D0FF2114
:101A70002D020C402C43A1B2154800F093F8A0238E
:101A800001375B009F42DBD1423BFF3B9C46E24477
:101A90005346002BCDD190200421C005012200F037
:101AA00087F976E76801002010E000E000ED00E033
:101AB000840100200004004800080048361000009F
:101AC0006C01002010100000000000200200002027
:101AD000003001400C488546002103E00B4B5B5869
:101AE000435004310A480B4B42189A42F6D30A4A33
:101AF00002E0002313600432084B9A42F9D300F04D
:101B0000B7F8FFF7D7FEFEE700200020041F00080B
:101B1000000000206C0100206C0100208C010020DE
:101B2000FEE70000C12310B504889B01CA891C4050
:101B30000B881343CA8813430A8913434A89134302
:101B40008A891343234303808288094B13408A8880
:101B50001343042283800B8A0382038893434A88B9
:101B600013430380828B034B1340838310BDC04615
:101B7000FFF0FFFFFFF7FFFF002904D14022038899
:101B80009343038070474023028813430380F9E79F
:101B90008288024B1340194381807047FFF0FFFF9A
:101BA000017370478181704700890840411E884158
:101BB000C0B270470023802182B02A4A009301936B
:101BC000136849020B43A020802113608902C001E1
:101BD00002E0009B834208D013680B400193009BF6
:101BE00001330093019B002BF3D01E4B1A68802316
:101BF0009B02134006D001230193019B012B05D0CA
:101C000002B070470193019B012BF9D11122164BB1
:101C100080201A60134A80045368536053685360ED
:101C20005168124B0B4088215360536849030B43A2
:101C300080215360136849040B4313601168094BFA
:101C40000142FBD003215A688A435A600222596834
:101C50000A435A600C211A1C53680B40082BFBD115
:101C6000CEE7C0460010024000200240FFFFC0FF48
:101C7000012108B5114B1A680A431A605868104AC6
:101C800002405A6018680F4A02401A6018680E4AEB
:101C900002401A6058680D4A02400F205A60DA6A02
:101CA0008243DA62186B0A4A02401A635A6B8A430B
:101CB0005A6300229A60FFF77DFF08BD00100240C2
:101CC0000CB8FFF8FFFFF6FEFFFFFBFFFFFFC0FFB2
:101CD000ACFEFFFFF0B544465F4656464D46F0B4B5
:101CE00003248C4683B00968002200230127A04604
:101CF00003E001330232102B26D03C1C0D1C9C400B
:101D00002540A542F5D164462479A346013C012C27
:101D100021D944469440E4430194056801332C40A2
:101D200004605C46944005682C4345469540046039
:101D3000C468AC43C4606446E479C56894402C43ED
:101D4000C4600232102BD8D103B03CBC90469946F7
:101D5000A246AB46F0BD8468A146444694404E4638
:101D6000E4432640866086680194B24666467679EA
:101D70009640B14656464C46264386608488261CCB
:101D8000AE4386808488A1466446A5794C469D4032
:101D90002543ADB28580019CBFE7C046008A08405C
:101DA000411E8841C0B2704781617047018570470C
:101DB000002A01D1018570478161FCE7072310B536
:101DC0000F240B409B009A409C40131CC9088900BB
:101DD0004018016AA1430162016A0B43036210BD0E
:101DE000002243088B4274D303098B425FD3030A5A
:101DF0008B4244D3030B8B4228D3030C8B420DD36D
:101E0000FF22090212BA030C8B4202D312120902FA
:101E100065D0030B8B4219D300E0090AC30B8B4238
:101E200001D3CB03C01A5241830B8B4201D38B03E6
:101E3000C01A5241430B8B4201D34B03C01A52418B
:101E4000030B8B4201D30B03C01A5241C30A8B42CE
:101E500001D3CB02C01A5241830A8B4201D38B02B9
:101E6000C01A5241430A8B4201D34B02C01A52415D
:101E7000030A8B4201D30B02C01A5241CDD2C309CF
:101E80008B4201D3CB01C01A524183098B4201D34B
:101E90008B01C01A524143098B4201D34B01C01A36
:101EA000524103098B4201D30B01C01A5241C308AE
:101EB0008B4201D3CB00C01A524183088B4201D31D
:101EC0008B00C01A524143088B4201D34B00C01A09
:101ED0005241411A00D20146524110467047FFE775
:101EE00001B5002000F00CF802BDC0460029F7D073
:101EF00003B5FFF775FF0EBC4243891A1847C04669
:041F00007047C04620
:101F04008000A000010000003A0440101214328046
:101F14001717180519021A7B030A0C0C3E007000EF
:101F2400710172117309A20211017A207B1C7C28B1
:101F34007D3C7E557F68807681808288838F8496FD
:101F440085A386AF87C488D789E813E00000100012
:101F54000D001410A505AB072475256326A59F78ED
:101F6400A068A103A6DFA7DFA8F0A990AA9413E5AF
:101F74000E610F4B16021E27210222912907330BF3
:101F8400350B371D3871392A3C784D404E20695D38
:101F94006B4074198D4F8E008F0090009100920059
:101FA40096009A80B084B10CB20EB382B80A43147E
:101FB40044F0453446584728483A59885A885B447F
:101FC4005C675D495E0E64046520660594049508AB
:101FD4006C0A6D556E116F9F6A4013E715004F80B0
:101FE400508051005222535E5480550056605790E1
:101FF400589E41083F05750576E14C0F770A3DC2AE
:102004004B09C9C8413834113B02A4899600973062
:10201400982099309A849B299C039D4C9E3F780478
:102024007901C8F0790FC8007910C87E790AC88090
:10203400790BC801790CC80F790DC8207909C880BB
:102044007902C8C07903C8407905C83069AA090073
:102054003B422D01000000000000000000000000D1
:0C2064000102030406070809006CDC02FE
:0400000508000000EF
:00000001FF
