:020000040800F2
:1000000000200020791B0008C51B0008C51B000844
:1000100000000000000000000000000000000000E0
:10002000000000000000000000000000C51B0008E8
:100030000000000000000000C51B0008310F000890
:10004000C51B0008C51B0008C51B0008C51B000810
:10005000C51B00088D180008C51B0008C51B00083B
:10006000C51B0008C51B0008C51B0008C51B0008F0
:10007000C51B0008C51B0008C51B0008C51B0008E0
:10008000C51B0008C51B000800000000C51B0008B8
:10009000C51B0008C51B0008C51B0008C51B0008C0
:1000A000C51B0008C51B0008C51B0008C51B0008B0
:1000B000C51B000800000000C51B00080000000070
:1000C0005FF808F1054B10B5054A5C6822405A609C
:1000D0005A6811430843586010BDC04600100240E2
:1000E000FFFFC2FF064A002804D11168054B0B40F0
:1000F000136070478021136849040B431360F8E7CD
:1001000000100240FFFFFFFE0321034A53688B43A8
:10011000184350607047C04600100240044A5369BB
:10012000002902D183435361704718435061FBE7B4
:1001300000100240044A9369002902D1834393616D
:10014000704718439061FBE700100240430908D153
:100150000A4B1B681F221040C340181C0123184083
:100160007047012B04D0022B05D0044B5B6BF1E7E9
:10017000024B1B6AEEE7014B5B6AEBE700100240A3
:10018000084982B00B6801930B68019A9B1A984248
:1001900005D9C0460B68019A9B1A8342F9D302B075
:1001A0007047C0466C010020F8B5071C90200D1C5C
:1001B000C0050421161C1C1C01F04AFE90201021D1
:1001C000C00501F045FEA6482A2101F03BFDA448E8
:1001D000802101F03BFD0128F9D0A148022101F066
:1001E00035FD0028F9D090200421C00501F02EFE35
:1001F00090200421C00501F02BFE90201021C005A5
:1002000001F024FE9648002101F01CFD9448802155
:1002100001F01CFD0128F9D09148022101F016FDE2
:100220000028F9D090200421C00501F00FFE902095
:100230000421C00501F00CFE90201021C00501F042
:1002400005FE8748391C01F0FDFC8548802101F03E
:10025000FDFC0128F9D08248022101F0F7FC0028BA
:10026000F9D090200421C00501F0F0FD9020042178
:10027000C00501F0EDFD90201021C00501F0E6FD64
:100280007748002101F0DEFC7548802101F0DEFC9A
:100290000128F9D07248022101F0D8FC0028F9D0D9
:1002A00090200421C00501F0D1FD90200421C0055B
:1002B00001F0CEFD90201021C00501F0C7FD684877
:1002C000311C01F0BFFC6648802101F0BFFC012811
:1002D000F9D06348022101F0B9FC0028F9D0902040
:1002E0000421C00501F0B2FD90200421C00501F0F9
:1002F000AFFD90201021C00501F0AAFD58482B2128
:1003000001F0A0FC5648802101F0A0FC0128F9D0A2
:100310005348022101F09AFC0028F9D090200421D2
:10032000C00501F093FD90200421C00501F090FD6F
:1003300090201021C00501F089FD4948002101F0FD
:1003400081FC4748802101F081FC0128F9D0444814
:10035000022101F07BFC0028F9D090200421C00587
:1003600001F074FD90200421C00501F071FD902082
:100370001021C00501F06AFD3948291C01F062FC1A
:100380003748802101F062FC0128F9D0344802216D
:1003900001F05CFC0028F9D090200421C00501F098
:1003A00055FD90200421C00501F052FD9020102140
:1003B000C00501F04BFD2A48002101F043FC28480C
:1003C000802101F043FC0128F9D02548022101F0E9
:1003D0003DFC0028F9D090200421C00501F036FD35
:1003E00090200421C00501F033FD90201021C005AC
:1003F00001F02CFD1A48211C01F024FC1848802132
:1004000001F024FC0128F9D01548022101F01EFC5E
:100410000028F9D090200421C00501F017FD90209C
:100420000421C00501F014FD90201021C00501F049
:100430000FFD0B482C2101F005FC0948802101F03B
:1004400005FC0128F9D00648022101F0FFFB002835
:10045000F9D090200421C00501F0F8FCF8BDC04699
:1004600000300140F8B5061C9020CA4DC00504219B
:100470002F886C8801F0ECFC90201021C00501F061
:10048000E7FC013F013CC4482A21FFB2E4B201F07D
:10049000D9FBC148802101F0D9FB0128F9D0BE4821
:1004A000022101F0D3FB0028F9D090200421C005DF
:1004B00001F0CCFC90200421C00501F0C9FC902083
:1004C0001021C00501F0C2FCB348002101F0BAFBC5
:1004D000B148802101F0BAFB0128F9D0AE480221D1
:1004E00001F0B4FB0028F9D090200421C00501F0F0
:1004F000ADFC90200421C00501F0AAFC9020102141
:10050000C00501F0A3FCA448002101F09BFBA24818
:10051000802101F09BFB0128F9D09F48022101F0C6
:1005200095FB0028F9D090200421C00501F08EFC35
:1005300090200421C00501F08BFC90201021C00503
:1005400001F084FC9448002101F07CFB924880215A
:1005500001F07CFB0128F9D08F48022101F076FBE5
:100560000028F9D090200421C00501F06FFC9020F4
:100570000421C00501F06CFC90201021C00501F0A1
:1005800065FC8548391C01F05DFB8348802101F042
:100590005DFB0128F9D08048022101F057FB0028BB
:1005A000F9D090200421C00501F050FC90200421D6
:1005B000C00501F04DFC90201021C00501F048FC61
:1005C00075482B2101F03EFB7348802101F03EFB72
:1005D0000128F9D07048022101F038FB0028F9D039
:1005E00090200421C00501F031FC90200421C005B9
:1005F00001F02EFC90201021C00501F027FC664878
:10060000002101F01FFB6448802101F01FFB01283D
:10061000F9D06148022101F019FB0028F9D090209F
:100620000421C00501F012FC90200421C00501F056
:100630000FFC90201021C00501F008FC5648002155
:1006400001F000FB5448802101F000FB0128F9D0A3
:100650005148022101F0FAFA0028F9D09020042133
:10066000C00501F0F3FB90200421C00501F0F0FB70
:1006700090201021C00501F0E9FB4748002101F05E
:10068000E1FA4548802101F0E1FA0128F9D0424819
:10069000022101F0DBFA0028F9D090200421C005E6
:1006A00001F0D4FB90200421C00501F0D1FB902083
:1006B0001021C00501F0CAFB3748211C01F0C2FA25
:1006C0003548802101F0C2FA0128F9D032480221D0
:1006D00001F0BCFA0028F9D090200421C00501F0F7
:1006E000B5FB90200421C00501F0B2FB9020102141
:1006F000C00501F0ADFB28482C2101F0A3FA2648E3
:10070000802101F0A3FA0128F9D02348022101F049
:100710009DFA0028F9D090200421C00501F096FB35
:10072000F0211D48090101F085FA90201021C00533
:10073000012201F08FFB90200022C005042101F06E
:1007400089FB2A886B8800245343002B15D012485C
:10075000311C01F079FA1048802101F077FA012864
:10076000F9D00D48022101F071FA0028F9D02A8849
:100770006B8801345343A342E9D890200122C0057D
:10078000042101F067FBE0210348C90001F052FA9F
:10079000F8BDC0460000002000300140802070B548
:1007A000400186B00121FFF7C5FC802001218002B5
:1007B000FFF7B4FC1C23DF4C902023601B3B23710C
:1007C0000023211CA371E371C0050333637101F0A1
:1007D000D3FAA02390202360211C9E3BC0052371E7
:1007E00001F0CAFA90200821C00501F02FFBD24C7D
:1007F000236801932368019A9B1A092B05D8C046E8
:100800002368019A9B1A092BF9D990200821C00569
:1008100001F01EFB236802932368029A9B1A092B9E
:1008200005D8C0462368029A9B1A092BF9D9902053
:100830000821C00501F00AFB90200721C005002215
:1008400001F00EFB90200521C005002201F008FBFD
:100850000023E022B949D2008B810B81CB80CB8170
:100860000533FF334B80B648FC334B818A8001F05F
:10087000ABF9B348012101F0D1F9B24D2B79002B2E
:1008800000D150E300232B71236803932368039A5C
:100890009B1A632B05D8C0462368039A9B1A632BC7
:1008A000F9D990200421C00501F0D2FA012390204B
:1008B000A54E5B42C0050421338001F0C9FA9020A7
:1008C0001021C00501F0C4FA9D48012101F0BAF9D8
:1008D0009B48802101F0BAF90128F9D098480221FB
:1008E00001F0B4F90028F9D090200421C00501F0EE
:1008F000ADFA236804932368049A9B1A092B05D840
:10090000C0462368049A9B1A092BF9D99020042128
:10091000C00501F09DFA90201021C00501F098FA61
:100920008748112101F08EF98548802101F08EF968
:100930000128F9D08248022101F088F90028F9D075
:1009400090200421C00501F081FA236805932368F3
:10095000059A9B1A132B05D8C0462368059A9B1A43
:10096000132BF9D990200421C00501F071FA9020D1
:100970001021C00501F06CFA7148262101F062F9DE
:100980006F48802101F062F90128F9D06C480221FA
:1009900001F05CF90028F9D090200421C00501F095
:1009A00055FA90200421C00501F052FA9020102140
:1009B000C00501F04BFA6248012101F043F960489B
:1009C000802101F043F90128F9D05D48022101F0AE
:1009D0003DF90028F9D090200421C00501F036FA35
:1009E00090200421C00501F033FA90201021C005A9
:1009F00001F02EFA5248C02101F024F9504880211C
:100A000001F024F90128F9D04D48022101F01EF926
:100A10000028F9D090200421C00501F017FA902099
:100A20000421C00501F014FA90201021C00501F046
:100A30000DFA4348102101F005F94148802101F0E9
:100A400005F90128F9D03E48022101F0FFF80028FD
:100A5000F9D090200421C00501F0F8F9902004217C
:100A6000C00501F0F5F990201021C00501F0EEF964
:100A70003348042101F0E6F83148802101F0E6F81E
:100A80000128F9D02E48022101F0E0F80028F9D021
:100A900090200421C00501F0D9F990200421C0055F
:100AA00001F0D6F990201021C00501F0D1F92448B9
:100AB000C12101F0C7F82248802101F0C7F80128C0
:100AC000F9D01F48022101F0C1F80028F9D0902088
:100AD0000421C00501F0BAF990200421C00501F0FD
:100AE000B7F990201021C00501F0B0F91448042195
:100AF00001F0A8F81248802101F0A8F80128F9D0E7
:100B00000F48022101F0A2F80028F9D0902004211A
:100B1000C00501F09BF990200421C00501F098F96F
:100B200090201021C00501F093F90548C22101F081
:100B300089F80BE0880100206C010020740100207E
:100B4000003001400000002086010020E0488021A4
:100B500001F07CF80128F9D0DD48022101F076F897
:100B60000028F9D090200421C00501F06FF99020F1
:100B70000421C00501F06CF990201021C00501F09E
:100B800065F9D348032101F05DF8D148802101F0D7
:100B90005DF80128F9D0CE48022101F057F800286D
:100BA000F9D090200421C00501F050F990200421D3
:100BB000C00501F04DF990201021C00501F046F963
:100BC000C348042101F03EF8C148802101F03EF8FD
:100BD0000128F9D0BE48022101F038F80028F9D0E8
:100BE00090200421C00501F031F990200421C005B6
:100BF00001F02EF990201021C00501F029F9B44828
:100C0000C32101F01FF8B248802101F01FF801282C
:100C1000F9D0AF48022101F019F80028F9D090204E
:100C20000421C00501F012F990200421C00501F053
:100C30000FF990201021C00501F008F9A448002107
:100C400001F000F8A248802101F000F80128F9D055
:100C50009F48022100F0FAFF0028F9D090200421DB
:100C6000C00501F0F3F890200421C00501F0F0F870
:100C700090201021C00501F0E9F89548072100F007
:100C8000E1FF9348802100F0E1FF0128F9D090486E
:100C9000022100F0DBFF0028F9D090200421C005DC
:100CA00001F0D4F890200421C00501F0D1F8902083
:100CB0001021C00501F0CCF88548C52100F0C2FF25
:100CC0008348802100F0C2FF0128F9D0804802212A
:100CD00000F0BCFF0028F9D090200421C00501F0ED
:100CE000B5F890200421C00501F0B2F89020102141
:100CF000C00501F0ABF87648242100F0A3FF74484A
:100D0000802100F0A3FF0128F9D07148022100F0F2
:100D10009DFF0028F9D090200421C00501F096F82D
:100D200090200421C00501F093F890201021C00507
:100D300001F08CF866487B2100F084FF6448802134
:100D400000F084FF0128F9D06148022100F07EFF05
:100D50000028F9D090200421C00501F077F89020F8
:100D60000421C00501F074F890201021C00501F0A5
:100D70006FF85748362100F065FF5548802100F094
:100D800065FF0128F9D05248022100F05FFF0028DA
:100D9000F9D090200421C00501F058F890200421DA
:100DA000C00501F055F890201021C00501F04EF863
:100DB0004748602100F046FF4548802100F046FF8B
:100DC0000128F9D04248022100F040FF0028F9D064
:100DD00090200421C00501F039F8A02390202B8039
:100DE000C005203B04216B8001F032F890201021D7
:100DF000C00501F02DF83648132100F023FF3448D8
:100E0000802100F023FF0128F9D03148022100F0B1
:100E10001DFF0028F9D090200421C00501F016F82C
:100E200090200421C00501F013F890201021C00586
:100E300001F00EF826483A2100F004FF24488021F2
:100E400000F004FF0128F9D02148022100F0FEFE45
:100E50000028F9D090200421C00500F0F7FF902071
:100E60000421C00500F0F4FF90201021C00500F01F
:100E7000EDFF1748052100F0E5FE1548802100F040
:100E8000E5FE0128F9D01248022100F0DFFE00281B
:100E9000F9D090200421C00500F0D8FF9020042153
:100EA000C00500F0D5FF90201021C00500F0D0FF54
:100EB0000748292100F0C6FE0548802100F0C6FE43
:100EC0000128F9D00248022100F0C0FE02E0C0462D
:100ED000003001400028F5D090200421C00500F02A
:100EE000B5FF90200421C00500F0B2FF9020102132
:100EF000C00500F0ADFF0D48202100F0A3FE0B4817
:100F0000802100F0A3FE0128F9D00848022100F05A
:100F10009DFE0028F9D090200421C00500F096FF26
:100F20003088FFF79FFA06B070BDC0460030014020
:100F3000024A1368013313607047C0466C010020F9
:100F400070B5061C00248025331C9020A340C005EA
:100F500002211D424FD000F079FF96235B00C0466E
:100F6000013B002BFBD190200121C00500F06EFF5A
:100F700096235B00C046013B002BFBD19020012152
:100F8000C00500F065FF96235B00C046013B002BC7
:100F9000FBD10134082CD7D16433C046013B002B70
:100FA000FBD190200221C00500F050FF96235B008A
:100FB000C046013B002BFBD190200121C00500F071
:100FC00045FF6423C046013B002BFBD1902002214A
:100FD000C00500F035FF4442444190200121C00586
:100FE00000F036FF9623E4B25B00C046013B002BC5
:100FF000FBD1201C70BD00F02BFFAEE738B5051CFF
:1010000090200C1CC005022100F020FF96235B00FD
:10101000C046013B002BFBD190200121C00500F010
:1010200015FF96235B00C046013B002BFBD19020AF
:101030000221C00500F00CFF96235B00C046013B77
:10104000002BFBD190200121C00500F001FF962369
:101050005B00C046013B002BFBD14220FFF770FF35
:101060006423002859D0C046013B002BFBD1281C2B
:10107000FFF766FF002800D172E06423C046013B01
:10108000002BFBD1201CFFF75BFF002822D0902013
:101090000221C00500F0DCFE96235B00C046013B48
:1010A000002BFBD190200121C00500F0CFFE96233C
:1010B0005B00C046013B002BFBD190200221C00504
:1010C00000F0C4FE96235B00C046013B002BFBD121
:1010D000012038BD90200221C00500F0B9FE962302
:1010E0005B00C046013B002BFBD190200121C005D5
:1010F00000F0ACFE96235B00C046013B002BFBD109
:1011000090200221C00500F0A1FE96235B00C0469E
:10111000013B002BFBD10020DBE790200221C00522
:1011200000F096FE96235B00C046013B002BFBD1EE
:1011300090200121C00500F089FE96235B00C04687
:10114000013B002BFBD190200221C00500F07EFE68
:1011500096235B00C046013B002BFBD10020B8E783
:1011600090200221C00500F073FE96235B00C0466C
:10117000013B002BFBD190200121C00500F066FE51
:1011800096235B00C046013B002BFBD1902002213F
:10119000C00500F05BFE96235B00C046013B002BC0
:1011A000FBD1002095E7C04670B5051C90200C1CB3
:1011B000C005022100F04AFE96235B00C046013BB9
:1011C000002BFBD190200121C00500F03FFE9623AB
:1011D0005B00C046013B002BFBD190200221C005E3
:1011E00000F036FE96235B00C046013B002BFBD18E
:1011F00090200121C00500F02BFE96235B00C04625
:10120000013B002BFBD14220FFF79AFE642300280C
:1012100000D111E1C046013B002BFBD1281CFFF798
:101220008FFE002800D1E4E090200221C00500F0EC
:101230000FFE96235B00C046013B002BFBD19020A4
:101240000121C00500F002FE96235B00C046013B71
:10125000002BFBD190200221C00500F0F7FD962362
:101260005B00C046013B002BFBD16433C046013B11
:10127000002BFBD190200221C00500F0E7FD962352
:101280005B00C046013B002BFBD190200121C00533
:1012900000F0DCFD96235B00C046013B002BFBD138
:1012A00090200221C00500F0D3FD96235B00C046CC
:1012B000013B002BFBD190200121C00500F0C8FDAF
:1012C00096235B00C046013B002BFBD14320FFF778
:1012D00037FE002800D1D2E06423C046013B002B3A
:1012E000FBD190200221C00500F0B0FD96235B00E9
:1012F000C046013B002BFBD10826002596235B004E
:10130000C046013B002BFBD190200121C00500F01D
:101310009DFD96235B00C046013B002BFBD1902036
:101320006D00C0050221EDB200F08AFD002801D059
:101330000135EDB290200121C00500F089FD962312
:101340005B00C046013B002BFBD1013EF6B2002EF4
:10135000D4D190202570C005022100F077FD96239E
:101360005B00C046013B002BFBD190200121C00552
:1013700000F06CFD96235B00C046013B002BFBD1C7
:1013800090200121C00500F063FD96235B00C0465C
:10139000013B002BFBD190200221C00500F058FD3D
:1013A00096235B00C046013B002BFBD1902002211D
:1013B000C00500F04DFD96235B00C046013B002BAD
:1013C000FBD190200121C00500F040FD96235B0079
:1013D000C046013B002BFBD190200221C00500F04C
:1013E00035FD96235B00C046013B002BFBD101205D
:1013F00070BD90200221C00500F02AFD96235B00FD
:10140000C046013B002BFBD190200121C00500F01C
:101410001DFD96235B00C046013B002BFBD19020B5
:101420000221C00500F012FD96235B00C046013B7F
:10143000002BFBD10020DBE790200221C00500F04B
:1014400007FD96235B00C046013B002BFBD190209B
:101450000121C00500F0FAFC96235B00C046013B69
:10146000002BFBD190200221C00500F0EFFC962359
:101470005B00C046013B002BFBD10020B8E7902069
:101480000221C00500F0E4FC96235B00C046013B4E
:10149000002BFBD190200121C00500F0D7FC962342
:1014A0005B00C046013B002BFBD190200221C00510
:1014B00000F0CCFC96235B00C046013B002BFBD127
:1014C000002095E7F0B54746902080B4C00582B073
:1014D000022100F0BBFC96235B00C046013B002BC1
:1014E000FBD190200121C00500F0B0FC96235B00E9
:1014F000C046013B002BFBD190200221C00500F02B
:10150000A7FC96235B00C046013B002BFBD190203B
:101510000121C00500F09CFC96235B00C046013B06
:10152000002BFBD14220FFF70BFD6423002800D1E4
:1015300000E1C046013B002BFBD11220FFF700FD6C
:10154000002800D17EE16423C046013B002BFBD183
:101550008020FFF7F5FC002800D1C5E09020022193
:10156000C00500F075FC96235B00C046013B002BD4
:10157000FBD190200121C00500F068FC96235B00A0
:10158000C046013B002BFBD190200221C00500F09A
:101590005DFC96235B00C046013B002BFBD10A207B
:1015A000FEF7EEFD6B46DF1D0B20391CFFF7FCFD3F
:1015B000002800D1B9E03B780120732B00D0B5E0C2
:1015C000DB339846B04CA04490200221C00525781A
:1015D000667800F03BFC96235B00C046013B002B85
:1015E000FBD190200121C00500F030FC96235B0068
:1015F000C046013B002BFBD190200221C00500F02A
:1016000027FC96235B00C046013B002BFBD19020BA
:101610000121C00500F01CFC96235B00C046013B85
:10162000002BFBD14220FFF78BFC002800D1C5E046
:101630006423C046013B002BFBD1281CFFF780FC34
:10164000002800D1DCE06423C046013B002BFBD125
:10165000301CFFF775FC002800D18DE0902002219E
:10166000C00500F0F5FB96235B00C046013B002B54
:10167000FBD190200121C00500F0E8FB96235B0020
:10168000C046013B002BFBD190200221C00500F099
:10169000DDFB96235B00C046013B002BFBD10234EF
:1016A000444591D11320391CFFF77EFD00283CD022
:1016B0003B20391CFFF778FD002836D03D20391C2F
:1016C000FFF772FD002830D06B20391CFFF76CFD4E
:1016D00000282AD0802339786B201943FFF78EFC2D
:1016E000431E9841C0B221E090200221C00500F0C5
:1016F000AFFB96235B00C046013B002BFBD1902043
:101700000121C00500F0A2FB96235B00C046013B0F
:10171000002BFBD190200221C00500F097FB9623FF
:101720005B00C046013B002BFBD1002002B004BC93
:101730009046F0BD90200221C00500F089FB962361
:101740005B00C046013B002BFBD190200121C0056E
:1017500000F07CFB96235B00C046013B002BFBD1D5
:1017600090200221C00500F071FB96235B00C0466B
:10177000013B002BFBD1D8E790200221C00500F0EF
:1017800067FB96235B00C046013B002BFBD19020FA
:101790000121C00500F05AFB96235B00C046013BC7
:1017A000002BFBD190200221C00500F04FFB9623B7
:1017B0005B00C046013B002BFBD1B6E79020022125
:1017C000C00500F045FB96235B00C046013B002BA3
:1017D000FBD190200121C00500F038FB96235B006F
:1017E000C046013B002BFBD190200221C00500F038
:1017F0002DFB96235B00C046013B002BFBD194E7F9
:1018000090200221C00500F023FB96235B00C04618
:10181000013B002BFBD190200121C00500F016FBFD
:1018200096235B00C046013B002BFBD19020022198
:10183000C00500F00BFB96235B00C046013B002B6C
:10184000FBD172E790200221C00500F001FB962336
:101850005B00C046013B002BFBD190200121C0055D
:1018600000F0F4FA96235B00C046013B002BFBD14D
:1018700090200221C00500F0E9FA96235B00C046E3
:10188000013B002BFBD150E70800002008B50120E8
:1018900000F030FB002800D108BD012000F034FB2F
:1018A0000C48012100F0CCFA0B4B002809D01A7922
:1018B000002AF1D00022074812211A7100F0C8FA5C
:1018C000EAE71B79002BE7D10248122100F0BEFAAB
:1018D000E2E7C046000800486C010020F0B55F4612
:1018E00056464D464446F0B4002083B0FEF70CFC4B
:1018F0000020FEF7F7FBA02100208903FEF7E2FBA2
:101900000120FEF7EFFB1920FEF720FC0028FAD09B
:101910000220FEF7F9FBFA21894B8900186800F0D4
:101920003FFB884A01385060C020874900060B6A97
:1019300000251B021B0A03430B62072395601360FB
:10194000FEF72CFF802001218002FEF7E7FB8020BC
:101950000121C002FEF7E2FB802001210003FEF717
:10196000DDFB01200121FEF7E5FB90200126032786
:10197000764CC005211C27602671A671E671657141
:1019800000F0FAF9FF237248211C23602571A5712C
:10199000E571657100F0F0F96E48211C2660257133
:1019A000657100F0E9F96C4B6A48211C23602671CF
:1019B000677100F0E1F90220002100F0ABFA052385
:1019C000664803708670457000F0BAFA10236448C8
:1019D000066086710571437100F054FAFFF772FDDD
:1019E0000028FBD05B4E5F4B80211B6801235D4AC2
:1019F00058484901137100F02BFA5A4B1B79002B00
:101A0000FBD180215348490100F020FA51482021A0
:101A100000F01EFA4F48042100F01AFA4D48042144
:101A200000F014FA4B48042100F010FA4948202134
:101A300000F00CFA4C4B00201A884C4B013A1B88E2
:101A4000D2B2013BDBB20021FEF7AEFB90200421B5
:101A5000C005002200F0FEF990201021C0050122EF
:101A600000F0F8F9002301249B466442584600F038
:101A7000B3FD8621C90500F05DFC3D4900F022FB65
:101A800000F08AFD0190A04247D0A02301275B000F
:101A900098463D3BFF3B9A4699463B1C4746984635
:101AA00006E042460123013F5A409046002F26D0CF
:101AB0004B4633855346B361C0464A46244B1C8A85
:101AC00032855246A4B2B261C0461D8A4346ADB2C9
:101AD000002BE6D02748022100F0B8F80028F9D002
:101AE000FF212D020C402C43A1B2224800F0ACF89B
:101AF00042460123013F5A409046002FD8D101238E
:101B00009C46E3445B46019CF02BAFD1902004211E
:101B1000C005012200F09EF965E7A02304210422FC
:101B20005B00013B3285B1613285B161002BF8D198
:101B300001239C46E3445B46019CF02B96D1E5E7EC
:101B40006801002010E000E000ED00E088010020C6
:101B500000040048000800483610000090010020F2
:101B6000940100206C0100200000002002000020F1
:101B700000007043003001400C488546002103E01E
:101B80000B4B5B58435004310A480B4B42189A42A6
:101B9000F6D30A4A02E0002313600432084B9A424B
:101BA000F9D300F0B7F8FFF799FEFEE70020002018
:101BB00064270008000000206C0100206C01002058
:101BC0009C0B0020FEE70000C12310B504889B0198
:101BD000CA891C400B881343CA8813430A891343DC
:101BE0004A8913438A891343234303808288094B1C
:101BF00013408A881343042283800B8A038203885C
:101C000093434A8813430380828B034B134083839F
:101C100010BDC046FFF0FFFFFFF7FFFF002904D112
:101C20004022038893430380704740230288134374
:101C30000380F9E78288024B134019438180704783
:101C4000FFF0FFFF017370478181704700890840F2
:101C5000411E8841C0B270470023802182B02A4AC9
:101C600000930193136849020B43A0208021136065
:101C70008902C00102E0009B834208D013680B4038
:101C80000193009B01330093019B002BF3D01E4B6B
:101C90001A6880239B02134006D001230193019B05
:101CA000012B05D002B070470193019B012BF9D1A4
:101CB0001122164B80201A60134A80045368536027
:101CC000536853605168124B0B408821536053682E
:101CD00049030B4380215360136849040B4313608D
:101CE0001168094B0142FBD003215A688A435A60AC
:101CF000022259680A435A600C211A1C53680B408F
:101D0000082BFBD1CEE7C046001002400020024065
:101D1000FFFFC0FF012108B5114B1A680A431A6082
:101D20005868104A02405A6018680F4A02401A6008
:101D300018680E4A02401A6058680D4A02400F2087
:101D40005A60DA6A8243DA62186B0A4A02401A63FE
:101D50005A6B8A435A6300229A60FFF77DFF08BDE1
:101D6000001002400CB8FFF8FFFFF6FEFFFFFBFF7C
:101D7000FFFFC0FFACFEFFFFF0B544465F4656468E
:101D80004D46F0B403248C4683B00968002200233A
:101D90000127A04603E001330232102B26D03C1C61
:101DA0000D1C9C402540A542F5D164462479A346EC
:101DB000013C012C21D944469440E4430194056838
:101DC00001332C4004605C46944005682C43454632
:101DD00095400460C468AC43C4606446E479C56857
:101DE00094402C43C4600232102BD8D103B03CBCC9
:101DF00090469946A246AB46F0BD8468A14644464B
:101E000094404E46E4432640866086680194B2467C
:101E1000664676799640B14656464C4626438660DD
:101E20008488261CAE4386808488A1466446A579B2
:101E30004C469D402543ADB28580019CBFE7C0461E
:101E4000008A0840411E8841C0B2704781617047D6
:101E500001857047002A01D1018570478161FCE747
:101E6000072310B50F240B409B009A409C40131C85
:101E7000C90889004018016AA1430162016A0B4345
:101E8000036210BD837910B5002B20D00168184B78
:101E9000CA439C461C6814401C605C6822405A601F
:101EA0000279624414682143116001689C68CA4346
:101EB00014409C60DC682240DA604279102A0FD01E
:101EC0000B4B9C46624413681943116007E0084AB3
:101ED0000379944663441A6801688A431A6010BD06
:101EE0009A680A439A60DA681143D960F7E7C046F6
:101EF00000040140034B5B691840431E9841C0B287
:101F00007047C04600040140014B58617047C0460D
:101F100000040140032310B50F240B409B009840A0
:101F2000064A9C409446031C8908890061448A68DB
:101F3000A2438A608A6813438B6010BD0000014091
:101F4000837870B5002B09D11F2203781349134001
:101F50001E3A9A40131C80228B5070BD03240278D5
:101F60000E4B95082240D400FF22111C9C46C0262F
:101F7000A140AD006544B600AB598B43417889015F
:101F80000A40A24013431F22AB51037813401E3A6C
:101F90009A40131C62461360DFE7C04600E100E090
:101FA000002243088B4274D303098B425FD3030A98
:101FB0008B4244D3030B8B4228D3030C8B420DD3AB
:101FC000FF22090212BA030C8B4202D31212090239
:101FD00065D0030B8B4219D300E0090AC30B8B4277
:101FE00001D3CB03C01A5241830B8B4201D38B0325
:101FF000C01A5241430B8B4201D34B03C01A5241CA
:10200000030B8B4201D30B03C01A5241C30A8B420C
:1020100001D3CB02C01A5241830A8B4201D38B02F7
:10202000C01A5241430A8B4201D34B02C01A52419B
:10203000030A8B4201D30B02C01A5241CDD2C3090D
:102040008B4201D3CB01C01A524183098B4201D389
:102050008B01C01A524143098B4201D34B01C01A74
:10206000524103098B4201D30B01C01A5241C308EC
:102070008B4201D3CB00C01A524183088B4201D35B
:102080008B00C01A524143088B4201D34B00C01A47
:102090005241411A00D20146524110467047FFE7B3
:1020A00001B5002000F00CF802BDC0460029F7D0B1
:1020B00003B5FFF775FF0EBC4243891A1847C046A7
:1020C0007047C046F0B556464D465F464446F0B4AC
:1020D00043024500C70F83B08A465C0A2E0EB946FC
:1020E00041D0FF2E26D080231B042343DC00002395
:1020F00098469B467F3E53465B025D0A53465A0014
:10210000DB0F120E9A4639D0FF2A33D080231B04EE
:102110002B43DD0000237F3A5146B21A46467940F0
:10212000081C01921E430F2E00D976E07E4AB600AD
:102130009659B746002C30D108239846063B9B465B
:10214000D9E780230021DB03FF245B02E4055B0A5F
:10215000C90723430B43181C03B03CBC9046994667
:10216000A246AB46F0BD002C28D104239846033B81
:102170009B46C0E7002D1FD1022302E0002D11D1A4
:102180000123B21A50464646784001921E430F2E54
:1021900027D86649B60089598F460C239846093BD3
:1021A0009B46A8E7281C00F05FFA7622431F5242A4
:1021B0009D40121A0023AFE70323ADE7201C00F077
:1021C00053FA431F9C4076235B421E1A0023984615
:1021D0009B4690E70025D1469B465B464846022B2E
:1021E0006FD10121FF2401400023AEE77E23019A35
:1021F0005B429B1A1B2B6DDD01214B4619400024CD
:102200000023A2E78023DB031C4249D18023DB03A8
:1022100023435B025B0A391C96E763016D01AB4205
:1022200037D389461A2001215B1B01241E1C49005B
:102230005B00002E01DBAB4201D35B1B2143013865
:102240000028F3D1581E83410B431D1C019C7F3491
:10225000002CCBDD6B0704D00F232B40042B00D0C8
:1022600004352B0104D5019A314B8032141C1D40DA
:10227000FE2C07DD4B460121FF241940002364E7B3
:10228000251CAAE701214A46AB015B0AE4B21140D2
:102290005BE7019A8946013A01921B200021C4E7BD
:1022A0001D4207D023435B025B0A391C4CE7002523
:1022B0006302ABD58023DB032B435B025B0A5146F1
:1022C00042E7032B25D0012BC0D10121002401407E
:1022D00000233AE7291CD9402B1C019A9E329340D7
:1022E0005D1EAB410B435A0704D00F221A40042A4B
:1022F00000D004335A0105D54B4601210124194071
:10230000002322E701214A469B015B0A1140002479
:102310001BE7802301214A46DB032B435B020A4073
:102320005B0A111C10E7C046A4260008E42600083A
:10233000FFFFFFF7F0B55F4656464D464446F0B402
:1023400045024600C40F83B00F1C6D0A360EA3462B
:1023500045D0FF2E25D080231B041D4300239A4621
:10236000ED007F3E01937B025B0A98467800FB0FED
:10237000000E994640D0FF2838D0802342461B04E7
:102380001343DB00984600237F384A46019F3018EC
:102390006240411C1F430F2F69D87D4EBF00F65984
:1023A000B746002D45D108230193063B9A46DAE74C
:1023B00093465346022B2FD15B46012400251C4037
:1023C000FF236D02DB056D0AE4071D432543281C2E
:1023D00003B03CBC90469946A246AB46F0BD002DEA
:1023E0002CD104230193033B9A46BCE743465A424F
:1023F00053410322D31AC8E742460123002AC4D01E
:10240000404600F031F94246431F9A4076235B4232
:10241000181A90460023B8E7032B00D1ADE0012B3A
:1024200000D08CE05B4654461C40E4B200230025FB
:10243000C7E70C230193093B9A4694E7281C00F058
:1024400013F97626431F9D4000237642361A0193E6
:102450009A4688E780250024ED03FF23B1E745462F
:10246000CB469A46A5E7454693469A46A1E743469A
:102470002C041B0C9C46230C444626041C1C360CC6
:102480002F0C7443351C66467D4373437743EB182A
:10249000260C9E19B54203D980235B029C466744F3
:1024A00024043304240C1B199D016C1EA5419B0EB2
:1024B000360C2B43BD19AD011D432B0104D501235F
:1024C00068081D400543081C031C7F33002B2CDDCE
:1024D000690704D00F212940042900D004352901BF
:1024E00003D52C4B1D40031C8033FE2B17DD01242C
:1024F000FF231440002564E78020C003054209D073
:102500004346034206D1454605436D026D0A4C46DB
:10251000FF2356E705436D026D0AFF2351E70124AF
:10252000AD016D0ADBB214404BE77E235B421B1A00
:102530001B2B07DD012400231440002541E7081C64
:102540005A46C1E79E30291C8540D940681E854106
:102550000D436B0704D00F232B40042B00D0043510
:102560006B0104D5012401231440002529E701242F
:10257000AD016D0A1440002323E78023DB031D43D4
:1025800001245B466D0223401C1C6D0AFF2318E7E3
:1025900024270008FFFFFFF74202510A4200C30F41
:1025A000120E00207E2A0DDD9D2A0CDC8020000406
:1025B0000143952A0ADC9620821AD1400A1C58420F
:1025C0004240D0187047034A9818FBE7963A91406A
:1025D0000A1CF4E7FFFFFF7F70B5041E39D0C50F5A
:1025E00000D04442201C00F03FF89E23261C1B1AFA
:1025F000962B07DC082801DD083884406402640A51
:10260000D8B21EE0992B0ADD0522211C121AD140F6
:102610000A1C011C1B318E40711E8E411643052879
:1026200001DD421F96400F4C3440720704D00F2248
:102630001640042E00D0043462010ED4A401640AB2
:10264000D8B26402C005640AED0704432C43201C81
:1026500070BD002500200024F3E7024B1C409F239F
:102660001B1AEBE7FFFFFFFB1C2101231B04984211
:1026700001D3000C10391B0A984201D3000A083913
:102680001B09984201D30009043902A2105C4018CA
:102690007047C0460403020201010101000000006E
:1026A000000000001A220008E2210008FE210008B4
:1026B000D6210008FE21000842210008FE21000862
:1026C000D6210008E2210008E2210008422100088A
:1026D000D6210008802200088022000880220008FD
:1026E00004220008E2210008E2210008CA220008B2
:1026F000D4210008CA22000842210008CA2200088A
:10270000D4210008E2210008E2210008422100084B
:10271000D4210008802200088022000880220008BE
:10272000AE2200086E240008662400086624000813
:102730005E240008B0230008B023000854240008D9
:102740005E240008B023000854240008B0230008C9
:102750005E240008B2230008B2230008B223000858
:04276000F824000851
:102764008000A000010000003A04401012143280DE
:102774001717180519021A7B030A0C0C3E00700087
:10278400710172117309A20211017A207B1C7C2849
:102794007D3C7E557F68807681808288838F849695
:1027A40085A386AF87C488D789E813E000001000AA
:1027B4000D001410A505AB072475256326A59F7885
:1027C400A068A103A6DFA7DFA8F0A990AA9413E547
:1027D4000E610F4B16021E27210222912907330B8B
:1027E400350B371D3871392A3C784D404E20695DD0
:1027F4006B4074198D4F8E008F00900091009200F1
:1028040096009A80B084B10CB20EB382B80A431415
:1028140044F0453446584728483A59885A885B4416
:102824005C675D495E0E6404652066059404950842
:102834006C0A6D556E116F9F6A4013E715004F8047
:10284400508051005222535E548055005660579078
:10285400589E41083F05750576E14C0F770A3DC245
:102864004B09C9C8413834113B02A48996009730FA
:10287400982099309A849B299C039D4C9E3F780410
:102884007901C8F0790FC8007910C87E790AC88028
:10289400790BC801790CC80F790DC8207909C88053
:1028A4007902C8C07903C8407905C83069AA09000B
:1028B4003B422D0100000000000000000000000069
:0C28C4000102030406070809006CDC0296
:0400000508000000EF
:00000001FF
